:100000000C9462000C948A000C948A000C948A0070
:100010000C948A000C948A000C948A000C948A0038
:100020000C948A000C948A000C948A000C945F044F
:100030000C948A000C948A000C948A000C948A0018
:100040000C9415040C948A000C948A000C948A0079
:100050000C948A000C948A000C948A000C948A00F8
:100060000C9420050C948A00000000002300260058
:10007000290000000000240027002A0000000000E2
:10008000250028002B0004040404040404040202D4
:100090000202020203030303030301020408102007
:1000A0004080010204081020010204081020000012
:1000B0000008000201000003040700000000000027
:1000C00000004E0611241FBECFEFD8E0DEBFCDBF2B
:1000D00011E0A0E0B1E0EAECFFE002C005900D9273
:1000E000A231B107D9F721E0A2E1B1E001C01D9230
:1000F000AA3EB207E1F710E0C2E6D0E004C02197C3
:10010000FE010E94D807C136D107C9F70E948006B8
:100110000C94E3070C940000E091B401F091B50158
:10012000309729F01092AF011092AE010994089512
:10013000CF93DF93AC01E091B201F091B30130971E
:10014000F1F09091B1018091B0019817C0F090E06A
:10015000292F30E02617370754F4D901AA5EBE4F85
:10016000EA01C20FD31F28812C939F5FF1CF109219
:10017000B1016093B001CB01DF91CF910994DF9180
:10018000CF910895CF92DF92EF92FF920F931F933A
:10019000CF93DF936C017A018B01C0E0D0E0CE15E4
:1001A000DF0581F0D8016D918D01D601ED91FC91B3
:1001B0000190F081E02DC6010995892B11F021965F
:1001C000EECF7E01C701DF91CF911F910F91FF907C
:1001D000EF90DF90CF900895833081F028F4813044
:1001E00099F08230A1F008958730A9F08830B9F0F5
:1001F0008430D1F4809180008F7D03C08091800095
:100200008F7780938000089584B58F7702C084B57E
:100210008F7D84BD08958091B0008F7703C0809159
:10022000B0008F7D8093B00008951F93CF93DF932C
:10023000282F30E0F901E255FF4F8491F901E6568D
:10024000FF4FD491F901EA57FF4FC491CC23C1F07D
:10025000162F81110E94EC00EC2FF0E0EE0FFF1F33
:10026000E458FF4FA591B4919FB7F894111104C0C1
:100270008C91D095D82302C0EC91DE2BDC939FBFEC
:10028000DF91CF911F910895CF93DF9390E0FC0110
:10029000E656FF4F2491FC01EA57FF4F84918823D3
:1002A00061F190E0880F991FFC01EE58FF4FC59156
:1002B000D491FC01E458FF4FA591B491611109C09C
:1002C0009FB7F8948881209582238883EC912E2310
:1002D0000BC0623061F49FB7F8948881322F30955B
:1002E00083238883EC912E2B2C939FBF06C08FB75E
:1002F000F894E8812E2B28838FBFDF91CF9108954A
:100300001F93CF93DF93182FEB0161E00E9444010C
:10031000209711F460E004C0CF3FD10539F461E0CB
:10032000812FDF91CF911F910C941501E12FF0E007
:10033000E255FF4FE491E330F9F048F4E130B9F0D1
:10034000E230A1F584B5806284BDC8BD34C0E73019
:10035000E9F0E83019F1E43049F5809180008062DD
:1003600080938000D0938B00C0938A0024C084B512
:10037000806884BDC7BD1FC0809180008068809365
:100380008000D0938900C093880015C08091B00090
:1003900080688093B000C093B3000DC08091B0001E
:1003A00080628093B000C093B40005C0C038D1050E
:1003B0000CF0B5CFAFCFDF91CF911F9108953FB72C
:1003C000F8948091A3019091A401A091A501B0910E
:1003D000A60126B5A89B05C02F3F19F00196A11DC7
:1003E000B11D3FBFBA2FA92F982F8827820F911DCB
:1003F000A11DB11DBC01CD0142E0660F771F881F12
:10040000991F4A95D1F7089585ED8093BC0080919E
:10041000BC0084FDFCCF1092AD01089540915601BF
:10042000262F30E0240F311D21323105DCF42091DC
:10043000AD012430C9F4FC0180E090E0861758F447
:10044000309156012191DC01AA5CBE4FA30FB11D72
:100450002C930196F3CF80915601680F609356015B
:1004600080E0089581E0089582E008950895E09184
:10047000B1018091B001E81730F4F0E0EA5EFE4F80
:10048000808190E008958FEF9FEF08959091B101E2
:100490008091B001981750F4E92FF0E0EA5EFE4F2A
:1004A000208130E09F5F9093B10102C02FEF3FEFBA
:1004B000C90108958091B00190E02091B101821BA3
:1004C00091090895CF93DF93CB01EA01642F0E9435
:1004D0000E02CE01DF91CF91089544E050E062E139
:1004E00071E086EB91E00C946202CF93DF931F9250
:1004F000CDB7DEB7698361E0CE0101960E940E029E
:1005000081E090E00F90DF91CF910895089580E011
:1005100090E008958F929F92AF92BF92CF92DF9218
:10052000EF92FF921F93CF93DF93049709F06FC16F
:1005300086EB91E00E9446026C0186EB91E00E94FE
:100540004602EC01182F86EB91E00E9446027C01E6
:1005500086EB91E00E94460260E070E0782FE60EA4
:10056000F71EC60199278230910509F4FCC01CF4DE
:100570000197B1F04CC18330910509F422C1049771
:1005800009F045C11092120110921301109214014A
:1005900010921501CE3008F423C11C2F1E5020C12B
:1005A000C83209F0A6C0B7016D5D7F4F660F771F97
:1005B000603222E072070CF040C077FD06C0653B58
:1005C00071052CF064EB70E002C060E070E0809197
:1005D000E801A8E8B0E06D01C81AD10887FDD394FE
:1005E000D601AA0FBB1FAA0FBB1F6D01BB0FEE08E0
:1005F000FF088091E90128E532E0281B310987FDD9
:100600003395220F331F220F331FC901330FAA0B5B
:10061000BB0B9C01AD012C193D094E095F09DB01A3
:100620000E948C0724EB30E040E050E00E9462071B
:10063000C20ED31EE41EF51EB6012091E7012C3038
:1006400088F53091E80188E890E0831B910937FD37
:100650009395880F991F880F991F681779078CF059
:100660008091E90148E552E0481B510987FD539507
:10067000440F551F440F551FCB01461757070CF465
:10068000CA010297880F991F4FB7F89430E0F9011B
:10069000EE0FFF1F2E0F3F1FF901EE53FE4F928307
:1006A00081834FBF0E94DF014B015C0195E0C92EA1
:1006B000D12CE12CF12C0E94DF01DC01CB01881947
:1006C0009909AA09BB09883E9340A105B10598F391
:1006D00081E0C81AD108E108F10828EE820E23E073
:1006E000921EA11CB11CC114D104E104F10419F73C
:1006F0008EC0C23371F42FEF30E0D7010E94D107D2
:1007000024E630E040E050E00E946207B90186E054
:100710005AC0CD3219F46E2D8AE004C0CE3279F47D
:100720006E2D8BE0DF91CF911F91FF90EF90DF90C6
:10073000CF90BF90AF909F908F900C941501C333D2
:1007400019F46E2D88E0EECFC43319F46E2D87E0D6
:10075000E9CFC43609F45BC061E08C2F0E944401EC
:100760006E2D8C2FDFCF62E08C2F0E9444011092FF
:100770001201109213011092140110921501DD273D
:10078000FE01E255FF4F8491FE01E656FF4F1491A2
:10079000FE01EA57FF4FC491CC2379F081110E94EA
:1007A000EC00EC2FF0E0EE0FFF1FE859FF4FA59192
:1007B000B491EC91E12381E009F480E0809312018F
:1007C00026C0B7018C2FDF91CF911F91FF90EF9042
:1007D000DF90CF90BF90AF909F908F900C9480014E
:1007E0001770106410937C0080917A00806480936D
:1007F0007A0080917A0086FDFCCF8091780020916C
:10080000790090E0922B8093120190931301DF9175
:10081000CF911F91FF90EF90DF90CF90BF90AF905E
:100820009F908F9008950E94DE071F920F920FB63F
:100830000F9211242F933F938F939F93AF93BF9366
:1008400080919F019091A001A091A101B091A2017E
:1008500030919E0123E0230F2D3720F40196A11D36
:10086000B11D05C026E8230F0296A11DB11D2093DE
:100870009E0180939F019093A001A093A101B0934A
:10088000A2018091A3019091A401A091A501B09132
:10089000A6010196A11DB11D8093A3019093A4010F
:1008A000A093A501B093A601BF91AF919F918F91A5
:1008B0003F912F910F900FBE0F901F9018951F9290
:1008C0000F920FB60F9211242F933F934F935F9384
:1008D0006F937F938F939F93AF93BF93EF93FF9308
:1008E00080919D0187FF05C01092850010928400C1
:1008F0001BC020919D01022E000C330B8091E6015C
:1009000090E02817390784F480919D01082E000C8F
:10091000990BFC01EE0FFF1F8E0F9F1FFC01EE5382
:10092000FE4F808186FD15C080919D018F5F809371
:100930009D0120919D01022E000C330B8091E60158
:1009400090E028173907C4F480919D018C3064F140
:1009500013C080919D01082E000C990BFC01EE0F35
:10096000FF1F8E0F9F1FFC01EE53FE4F808160E042
:100970008F730E941501D8CF8091840090918500DB
:10098000049680349C4918F480E49CE905C0809169
:10099000840090918500049690938900809388004C
:1009A0008FEF80939D013BC02091840030918500A2
:1009B00080919D01082E000C990BFC01EE0FFF1F8A
:1009C0008E0F9F1FFC01EE53FE4F81819281820F9B
:1009D000931F909389008093880080919D01082E39
:1009E000000C990BFC01EE0FFF1F8E0F9F1FFC01E7
:1009F000EE53FE4F808186FF12C080919D01082E2C
:100A0000000C990BFC01EE0FFF1F8E0F9F1FFC01C6
:100A1000EE53FE4F808161E08F730E941501FF91BC
:100A2000EF91BF91AF919F918F917F916F915F9166
:100A30004F913F912F910F900FBE0F901F901895DF
:100A40001F920F920FB60F9211242F933F934F9343
:100A50005F936F937F938F939F93AF93BF93EF9326
:100A6000FF938091B900887F803609F49CC068F5B7
:100A7000883209F45BC090F4803109F454C038F432
:100A8000882309F4F6C0883009F44DC0F6C08831D7
:100A900009F44CC0803209F45DC0EFC0803409F421
:100AA00068C048F4803309F455C0883309F0E5C0C4
:100AB00080937901D8C0803509F44FC0883509F496
:100AC0005DC0883409F0D9C0D6C0883909F4C7C0E0
:100AD000A8F4883709F467C038F4883609F463C08D
:100AE000803709F460C0C9C0883809F4B8C08039BB
:100AF00009F45FC0803809F0C0C05BC0803B09F4D6
:100B000086C038F4803A09F466C0883A09F47FC098
:100B1000B4C0803C09F4A7C0883C09F4A4C0883B59
:100B200009F48AC0AAC080919C0110C090919B01D9
:100B300080919A01981770F5E0919B0181E08E0FEA
:100B400080939B01F0E0E658FE4F80818093BB00CC
:100B500085EC86C0809379018EC0E0919B0181E095
:100B60008E0F80939B018091BB00F0E0E658FE4F12
:100B7000808390919B0180919A016EC0E0919B01CE
:100B800081E08E0F80939B018091BB00F0E0E658DE
:100B9000FE4F80838091AC0181116DC081E0809314
:100BA000AB0184EA61C083E08093AD0110927801CB
:100BB000CFCF80917801803208F051C0E091780168
:100BC00081E08E0F809378018091BB00F0E0E85ABD
:100BD000FE4F8083BDCF85EC8093BC001092AD01A9
:100BE00080917801803230F4E0917801F0E0E85AA9
:100BF000FE4F10826091780170E0E091A701F091C2
:100C0000A80188E591E009951092780136C084E04A
:100C10008093AD011092570110925601E091A90105
:100C2000F091AA01099580915601811105C081E0DA
:100C30008093560110923601E091570181E08E0FAA
:100C400080935701F0E0EA5CFE4F80818093BB0007
:100C50009091570180915601981708F479CF85E853
:100C60008093BC000AC085EC8093BC001092AD015B
:100C700004C0109279010E940402FF91EF91BF918C
:100C8000AF919F918F917F916F915F914F913F9124
:100C90002F910F900FBE0F901F9018951092B901D1
:100CA0001092B80188EE93E0A0E0B0E08093BA0122
:100CB0009093BB01A093BC01B093BD0184E091E08F
:100CC0009093B7018093B6018091E6018C30A0F437
:100CD00091E0980F9093E6018093E70190E0FC018A
:100CE000EE0FFF1F8E0F9F1FFC01EE53FE4F88EB90
:100CF0009BE09283818308958FEF8093E7010895AD
:100D0000789484B5826084BD84B5816084BD85B5E6
:100D1000826085BD85B5816085BD80916E008160F2
:100D200080936E0010928100809181008260809398
:100D3000810080918100816080938100809180009A
:100D40008160809380008091B10084608093B100C5
:100D50008091B00081608093B00080917A008460BF
:100D600080937A0080917A00826080937A008091EB
:100D70007A00816080937A0080917A008068809305
:100D80007A001092C1008091E7018C3008F051C0C8
:100D900061E089E00E9444018091E701E82FF0E0E2
:100DA0009F01220F331FE20FF31FEE53FE4F90817E
:100DB000907C996090831092E8011092E9016CE0B8
:100DC0000E94C5079CE0899FB001112440E050E0DB
:100DD0009B01240F351FF901EE0FFF1F2E0F3F1F40
:100DE000F901EE53FE4F908196FD16C04F5F5F4FA5
:100DF0004C30510569F781110FC01092800082E0DC
:100E0000809381001092850010928400B19A8091A5
:100E10006F00826080936F00E091E701F0E0CF0106
:100E2000880F991FE80FF91FEE53FE4F80818064F1
:100E300080831092B1011092B0011092AF01109214
:100E4000AE011092AD0181E08093AC011092AB0134
:100E500061E082E10E94150161E083E10E941501D9
:100E60008091B9008E7F8093B9008091B9008D7F09
:100E70008093B90088E48093B80085E48093BC0037
:100E80008CE890E09093AA018093A90188E990E012
:100E90009093A8018093A7018EEF8093BA008AE80F
:100EA00092E09093B3018093B2018DE692E090932B
:100EB000B5018093B401C0E0D0E02097F1F30E9427
:100EC0000000FBCF052E97FB1EF400940E947907CB
:100ED00057FD07D00E94940707FC03D04EF40C94F2
:100EE000790750954095309521953F4F4F4F5F4F73
:100EF000089590958095709561957F4F8F4F9F4F86
:100F000008950E94B607A59F900DB49F900DA49FD1
:100F1000800D911D11240895B7FF0C9481070E9444
:100F20008107821B930B0895A1E21A2EAA1BBB1BFB
:100F3000FD010DC0AA1FBB1FEE1FFF1FA217B307A5
:100F4000E407F50720F0A21BB30BE40BF50B661FBB
:100F5000771F881F991F1A9469F76095709580957F
:100F600090959B01AC01BD01CF010895A29FB001F6
:100F7000B39FC001A39F700D811D1124911DB29FCD
:100F8000700D811D1124911D0895991B79E004C0F5
:100F9000991F961708F0961B881F7A95C9F78095B8
:100FA00008950E94B607B7FF0895821B930B08951A
:100FB000EE0FFF1F0590F491E02D099481E090E081
:0A0FC000F8940C94E307F894FFCFB7
:100FCA000000000075026202870236025A024602D7
:020FDA003702DC
:107E0000112484B714BE81FFF0D085E080938100F7
:107E100082E08093C00088E18093C10086E0809377
:107E2000C20080E18093C4008EE0C9D0259A86E02C
:107E300020E33CEF91E0309385002093840096BBD3
:107E4000B09BFECF1D9AA8958150A9F7CC24DD24C4
:107E500088248394B5E0AB2EA1E19A2EF3E0BF2EE7
:107E6000A2D0813461F49FD0082FAFD0023811F036
:107E7000013811F484E001C083E08DD089C08234E0
:107E800011F484E103C0853419F485E0A6D080C0E4
:107E9000853579F488D0E82EFF2485D0082F10E0AE
:107EA000102F00270E291F29000F111F8ED06801E7
:107EB0006FC0863521F484E090D080E0DECF843638
:107EC00009F040C070D06FD0082F6DD080E0C81688
:107ED00080E7D80618F4F601B7BEE895C0E0D1E017
:107EE00062D089930C17E1F7F0E0CF16F0E7DF06D8
:107EF00018F0F601B7BEE89568D007B600FCFDCFD4
:107F0000A601A0E0B1E02C9130E011968C91119780
:107F100090E0982F8827822B932B1296FA010C0160
:107F200087BEE89511244E5F5F4FF1E0A038BF0790
:107F300051F7F601A7BEE89507B600FCFDCF97BE46
:107F4000E89526C08437B1F42ED02DD0F82E2BD052
:107F50003CD0F601EF2C8F010F5F1F4F84911BD097
:107F6000EA94F801C1F70894C11CD11CFA94CF0C13
:107F7000D11C0EC0853739F428D08EE10CD085E9AC
:107F80000AD08FE07ACF813511F488E018D01DD067
:107F900080E101D065CF982F8091C00085FFFCCF94
:107FA0009093C60008958091C00087FFFCCF809118
:107FB000C00084FD01C0A8958091C6000895E0E648
:107FC000F0E098E1908380830895EDDF803219F02E
:107FD00088E0F5DFFFCF84E1DECF1F93182FE3DFCA
:107FE0001150E9F7F2DF1F91089580E0E8DFEE27F6
:047FF000FF270994CA
:027FFE00040479
:0400000300007E007B
:00000001FF
